:0200000270008C
:10500000807F0020FD990700259A0700279A070056
:10501000299A07002B9A07002D9A0700000000002C
:105020000000000000000000000000002F9A0700B0
:10503000319A070000000000339A0700359A0700F4
:10504000379A0700379A0700379A0700379A070000
:10505000379A0700379A0700379A0700379A0700F0
:10506000379A0700379A0700379A0700379A0700E0
:10507000379A07005D7D0700379A0700379A0700C7
:10508000379A0700458A0700379A0700379A0700C2
:10509000518B0700379A070091870700379A07005E
:1050A000379A0700379A0700379A0700379A0700A0
:1050B000379A0700379A0700000000000000000040
:1050C000379A0700379A0700379A0700379A070080
:1050D000379A0700379A0700379A07000000000048
:1050E00000000000000000000000000000000000C0
:1050F00000000000000000000000000000000000B0
:10510000000000000000000000000000000000009F
:10511000000000000000000000000000000000008F
:1054000010B5054C237833B9044B13B10448AFF3FE
:1054100000800123237010BD942C002000000000A8
:10542000A8D10700084B10B51BB108480849AFF3D5
:1054300000800848036803B910BD074B002BFBD060
:10544000BDE81040184700BF00000000A8D10700C9
:10545000982C0020782C002000000000154B002B19
:1054600008BF134B9D46A3F5803A00218B460F469B
:105470001348144A121A00F065F80F4B002B00D0A5
:1054800098470E4B002B00D09847002000210400C5
:105490000D000D48002802D00C48AFF3008000F04A
:1054A0002BF82000290000F075FB00F011F800BF78
:1054B00000000800807F00200000000000000000C5
:1054C000942C0020B83900200000000000000000EB
:1054D00008B5074B044613B10021AFF30080054B1C
:1054E0001868836A03B19847204600F033F800BF7C
:1054F0000000000080B5070070B50E4B0E4CE41A9A
:10550000A41000251E46A54204D056F82530984721
:105510000135F8E706F026F8084C094BE41AA41008
:1055200000251E46A54204D056F82530984701357F
:10553000F8E770BD702C0020702C0020742C002027
:10554000702C002002440346934202D003F8011B52
:10555000FAE77047FEE700BF67DF7047ADDF7047CF
:10556000A9DF7047A8DF7047A6DF7047A5DF704747
:1055700086DF70477FDF70477DDF704773DF7047DE
:1055800072DF704730B587B004460D46ADF806208F
:1055900002A810220021FFF7D5FF01238DF80A3061
:1055A0000DF1060304932046044BADF8085002A900
:1055B0000593FFF7D9FF07B030BD00BF2C3900209D
:1055C00030B5354D296811F002018BB05DD1102244
:1055D00001A8FFF7B7FF0B230122ADF80230022329
:1055E0008DF814308DF815208DF8183006225923C7
:1055F0008DF816208DF819300322FE230DF11D00C1
:105600000DF102018DF817208DF81A30FFF7B4FF65
:10561000E0B9BDF802100B299DBF4B1C8DF81B3063
:1056200009230C2395BFC9188DF81B3089B20823B4
:1056300088BF14214FF0000294BF8DF81C308DF804
:105640001C3005A8C9B21346FFF79AFF0446F8B903
:105650008DF8040002908DF80C002823ADF810009E
:1056600001A8ADF80E30FFF789FF80B94FF0A043D5
:105670004FF40032C3F80C254FF40022C3F808257C
:105680002B6843F002032B6002E0002400E0044694
:1056900020460BB030BD00BF2839002013DF704713
:1056A000C0F3072308704B70C0F30743000EC870A7
:1056B0008B700420704763DF7047A2DF7047A0DF64
:1056C00070477CDF70477ADF704776DF704774DFA2
:1056D00070476DDF70476CDF7047BFF34F8F054930
:1056E000054BCA6802F4E0621343CB60BFF34F8FEF
:1056F00000BFFDE700ED00E00400FA05024608B532
:105700000120024903F01EFCFFF7E7FF84B5070004
:105710002DE9F0430388112B89B0044618D002D834
:10572000102B05D03BE0122B31D0502B1DD036E092
:10573000AD4B82881A8000F1100303CBAB4AAC4B0F
:105740001060516000221A70AA4BDB893BBB24E039
:10575000A54B4FF6FF721A80A54B00221A7003F07A
:10576000F7FFE0B1A34B9B690EE0A24DC288EB8925
:105770009A4214D1038A022B11D1837CD9070CD40D
:1057800003F0E6FF58B1AB694BB1984707E000F171
:10579000080303CB954A1060516001F09BFD2388FC
:1057A000142B00F0978118D8102B26D008D8022B84
:1057B00040F0D581904B00211888FFF7CDFECBE15A
:1057C000112B2DD0132B40F0CA818B4B002218884F
:1057D00085211346FFF7CEFEBEE1522B00F08181FA
:1057E00005D8502B00F08481512B2DD0B7E1552BDB
:1057F00000F0AE81562B1DD0B1E14FF0A0434FF425
:105800000022C3F80C254FF40032C3F808257A4B68
:10581000A2881A80794A136823F0020313609EE17C
:10582000FFF7CEFE002840F09881734B4FF6FF72D1
:105830001A8094E1A379002B40F091816E4B1321E3
:105840001888FFF742FF87E1A579002D00F08781D6
:1058500004A800211022FFF775FE022D40F07F8181
:10586000674E2289B3899A4240F07981A37B043B39
:10587000022B40F274819DF816305F4F318A3888D0
:10588000CDF808D043F001038DF81630238AADF827
:105890001830638AADF81A3004F11403022207931A
:1058A00000238DF810200193ADF8042001AAFFF722
:1058B0005DFE3D4660B99DF80030DA0708D440F23D
:1058C000FD133888ADF8143004A9FFF74BFE46E10C
:1058D00000272888ADF8147004A9FFF743FE0028BC
:1058E00040F03D8139460C2204A8FFF72BFE01A8A9
:1058F00039460C22FFF726FE237D013B052B00F2E3
:10590000D780DFE813F006003F0052003100D500D9
:105910006800638A062B01D00120CEE039490320BC
:1059200003F01BFB384BE17D5A881A80227E637D91
:105930000293120442EA0122A17D0A43617E42EAF7
:1059400001620392012293428DF8042001D0022BC0
:1059500007D12E4A04A901A8137000F0FBFC0146F0
:1059600000E007210120A9E00320294903F0F5FA0E
:10597000032304A901A88DF8043000F0EBFC0146D4
:1059800004209BE00320234903F0E7FA638A032BFA
:1059900001D0022091E0A27D637D43EA02231A4AEE
:1059A000022053801380012188E003201A4903F06C
:1059B000D4FA042304A90DEB03008DF8043000F0A1
:1059C000C9FC0128014604D10598069903F0F4FEAC
:1059D00076E0032072E00320104903F0BEFA638AE8
:1059E000022B1DD0062068E0FC3400202435002066
:1059F000FE34002000350020662C002028390020CD
:105A00003C390020B3B50700B02C0020642C0020E6
:105A1000D2B50700F2B507000CB607002BB6070099
:105A2000637D02930622012B8DF8042001D0022B06
:105A30003BD14C4A04A901A8137000F08BFC01284B
:105A40000446014632D1DDF81090DDF81480069F3F
:105A5000454842463B46494603F018FE2A884FF621
:105A6000FF739A4230D0414B1B68DB072CD5404D69
:105A700060232B70E91C062348466B70AC70FFF75F
:105A80000FFE033084B229194046FFF709FE204477
:105A900084B229193846FFF703FE364BB189221824
:105AA00092B21888FFF76EFD0AE00721062005E094
:105AB0000320314903F051FA207D032103F0F3FD67
:105AC000024600284BD000E0082201202B4903F0B9
:105AD00039FA44E00021A0880A460B46FFF748FD4A
:105AE0003AE00021A0880A460B46FFF739FD33E073
:105AF000234BE2889B889A4231D100210C2204A8D2
:105B0000FFF720FD00210C2201A8FFF71BFD022357
:105B10008DF8043004F11203029301A8238A039341
:105B200004A900F017FC012803D00320154903F055
:105B300014FA154C638893B12388013B9BB22380F0
:105B40006BB90598069903F037FE6388238006E059
:105B5000A0881721FFF702FD08B1FFF7CFFD09B0BC
:105B6000BDE8F083642C00204AB6070028390020E5
:105B70002C390020662C00209BB60700C0B6070019
:105B80003C390020FDB60700B02C002008B5FFF717
:105B9000B5FD00BF2DE9F04FB34D2B7985B00BB1AA
:105BA0006B791BBBB14C2378EBB902222261626195
:105BB000AF4AE26140200244AE49E2641022A3628F
:105BC000E3626362E365A365A16163652062A1642A
:105BD0002265A949E01D05F0C1F82046A74905F056
:105BE000BDF82023A37101232B716B71A44BA54A2F
:105BF0005A610320A44AA5499A6103F0AEF94FF017
:105C0000A04303244FF400324FF40021C3F844476B
:105C1000C3F84847C3F84C47C3F80825C3F808152C
:105C2000C3F80C259A4AC3F834274FF48072C3F89E
:105C300020472046C3F808259649C3F82047C3F8F3
:105C4000082503F08AF920469349944D03F085F91D
:105C50002046934903F081F9924B93490026284648
:105C60004FF4AE721E7005F03BF82C68611C06D034
:105C7000281D5821324602F03FF8A04211D00320DF
:105C80008A4903F06AF9854800214FF4AE72FFF7A4
:105C900059FC012300206B6002F0D8FB002840F083
:105CA000A48143F20803032081491C687B4E03F062
:105CB00054F92B69012B0BD073694BB1B36903F60F
:105CC000FF7323F47F6323F00F031C44243600E0AA
:105CD0001836B368A52B00F0898002D8012B07D0B5
:105CE000BCE0AA2B00F09680AC2B00F09D80B5E0C4
:105CF0000320704903F031F96A69684B012A40F0CA
:105D0000B8811E6BD3F824B06B4943F2080303201B
:105D10001F683744C6EB0B0603F01FF9B6F5805F2A
:105D200038464FF001014FF00002B04628BF4FF453
:105D3000805802F021FA0346002840F0DA80384605
:105D40002146424602F0D0FA002840F0D2804FEAC5
:105D500098034FF003096846CDF80090019702942C
:105D6000039302F0F9F9024630B1484653493A46E6
:105D7000234603F0DDF8BCE02046012102F0FCF9E7
:105D800028B148464E49224603F0DCF8B1E02B6BBF
:105D9000DFF808A143442B6302F058FBB6EB08067A
:105DA00047444444BAD143F208033246186859467E
:105DB00001F0A2FFDAF828200446944248460AD1AE
:105DC000404903F0CAF80123CAF82030CAF81C4041
:105DD000CAF818B003E03C49234603F0A9F83B4851
:105DE00002F0ACF9002002F031FB1BE0032038493F
:105DF00003F0B3F8204602F095FB044610B10320EF
:105E0000344928E0304602F099F9204602F01EFBA2
:105E100001236DE00320304903F09FF8204631460E
:105E200002F030FC002363E003202C4903F095F8D6
:105E300003202B4903F091F8204602F073FB10B1C8
:105E40000320284907E02046314602F01BFC0028C9
:105E500053D02549032003F080F84AE0032023496A
:105E600003F07BF805E100BFB02C0020D42E002009
:105E7000B62C002021B707002AB707002EB707006D
:105E800084390020ED880700B587070035B7070083
:105E90000C00030054B7070073B70700C837002091
:105EA00090B707006435002000F00700B6B7070080
:105EB000F8B7070017B8070029B807004CB8070063
:105EC0008DB80700C6B80700E3B80700EC3700201C
:105ED00032B9070043B9070069B907007AB907006A
:105EE00098B90700BDB90700DBB90700F9B9070089
:105EF00020B103206D4903F030F801234FF0A04298
:105F0000D2F81025920440F1B680AA6D012A08D17A
:105F1000674B0020986502F099FA002800F0AB80EA
:105F200063E023B902F0DCF8002840F0948002F02E
:105F3000EFFD604B604A1A60604A614F614E052375
:105F400093700024604B1470547053605F4A146067
:105F50005F4A14705F4A14705F4A4FF48011E0206A
:105F6000C2F8801182F81403116001F18041A1F59B
:105F70006F21F61BC1F8084582F81103574AD1F882
:105F800004151160564A03F178011160554A5649CB
:105F900003F590731360554B1C70554B1C70554B9B
:105FA00008221A80544B14220320F6081A8002F0AB
:105FB000D4FF03205149324602F0C4FFB44206D058
:105FC00057F834309847804618B90134F6E74FF057
:105FD000000803204A4902F0C0FF0320B8F1000F77
:105FE00005D0484902F0B9FF4046FFF787FB464914
:105FF0002F4C02F0B2FF454A137843F001031370AF
:10600000434B444A1A60444B04221A60434BC3F882
:106010000080AB6BC3B100F067F9A8B1236A23B964
:10602000A36913B13E4A136007E0EA6A204B5AB9EC
:106030009A694AB15A6A3A4B1A60394B186803F0A8
:106040000BFA384B01221A700320374902F085FF02
:1060500002F03CFFFCE702F043F888B143F2080489
:1060600003203249226802F06DFF206802F05AFBDB
:1060700006E0002342E703202D4902F06EFF56E7B9
:1060800003202C4902F069FF2B49032002F065FF31
:1060900043F20803186802F045FB0320274902F089
:1060A0005CFF002005B0BDE8F08F00BF16BA070006
:1060B000C837002058370020AF7807005C3900202F
:1060C0008C2C0020942C0020082D0020503700201C
:1060D0005C3700205D37002000E100E054370020ED
:1060E000703700207437002047BA07006B37002054
:1060F0006A3700204C3700206C3700206ABA07004E
:1061000085BA0700ABBA0700DDBA0700E935002001
:10611000D8350020DD7707006C350020D02E002018
:10612000F43000208830002007BB070022BB0700A6
:106130009EBB07003DBB07005DBB07007FBB0700A0
:10614000024A1368013B1360704700BFD02E002045
:106150005B689A68074B9A420AD14368826806498D
:10616000013A01330B604A600320044902F0EABEA1
:10617000704700BFCCBB0700A039002005BD070059
:10618000164E174C174908B50320A41B02F0E5FE74
:10619000E4080320144902F0E0FE032013492246DC
:1061A00002F0D0FE0025A54204D006EBC5035B68D3
:1061B000984778B103200E4902F0CFFEBFF34F8F0E
:1061C0000C490D4BCA6802F4E0621343CB60BFF385
:1061D0004F8F01E00135E6E700BFFDE78C2C002082
:1061E000942C002023BD07003EBD07006ABA0700BB
:1061F00085BA070000ED00E00400FA052DE9F74F2D
:1062000082460F464FF00A094FF00008344B1A6BD4
:10621000012A0AEB080C9B4617D005D3022A52D15B
:106220009E6A00243B4621E0D96A9A6A91429CBF4B
:106230005B6AC91801398A1ABA4244D329486146AF
:106240003A4601F0BDF83C463EE0DC6A9A6A2548D1
:1062500094429CBF5B6AE418013CA41ABC4228BF6C
:106260003C466146224601F0ABF82DE0DBF82C50AD
:10627000DBF820000193B54298BF194ACDF800C061
:106280009CBF516A6D18013DAA1BDBF82450AD1B61
:106290009D4228BF1D46954228BF154630446146A1
:1062A0002A4604F01DFDDBF82420019BDDF800C028
:1062B0002E44964208BF00265B1B2C44AC44CBF80E
:1062C0002860D3D100E00024A0443F1B14B9B9F1E9
:1062D000010901D0002F99D1012003B0BDE8F08F52
:1062E000D02E0020EC2E002010B5134B134C9A6BCF
:1062F0001349E1675C33C4F88030124BC4F888302E
:10630000114BC4F8842004F18C0100220F481A605C
:106310005A6001F050F904F17C0004F18C020B4941
:1063200001F075F8044628B90320094902F015FE6A
:10633000204610BD012010BDC8370020D02E0020FF
:10634000C176070051610700A039002044BC070056
:1063500062BD07002DE9F347BC4B1B78012B0446B7
:106360000E4603D0022B00F06181EAE30378013B83
:106370000320052B00F25881DFE813F006002D0002
:106380005400220056014B01B14902F0E6FDA3681A
:10639000002B31D0B3F5807F00F2AB810320AD49F3
:1063A00002F0DBFD0025AC4BAC4883F8B85120224D
:1063B0002946FFF7C7F8AA4B1D63A2689A6307E056
:1063C000A84902F0CAFDA84BDA6B72601B6CB3607F
:1063D000012400F09FBCA44DA44902F0BEFDA268B8
:1063E000E86BAB6B8118994209D970602B6CA0499E
:1063F000B360032002F0B1FD032400F08BBC2844FD
:1064000061685C3004F06CFCEB6BA7681F44EF63C1
:106410006068A16805F1400201F06EFC28647760B5
:106420002B6CD4E7904D934902F097FDEA6BAB6B70
:106430009A424FF0030001D08F4962E1864C8F49A8
:1064400002F08BFD94F8B8312646002BC0D105F13F
:106450005C00298F03F0EEF90320894902F07DFDED
:10646000FFF742FF012840F0478494F80031002BE9
:1064700000F0C7800320834902F06FFD94F80631D5
:10648000002B00F03984804B93E880019946002F5F
:1064900000F03E84B8F1000F00F03A8494F86731C0
:1064A00013B194F86831A3BB96F810216A4B002A07
:1064B00000F02E84D3F81421342A40F0298493F874
:1064C0001811002203F58C738A4280F2218443F272
:1064D0000C0053F8044F0088844200F039830132E5
:1064E000F2E796F80831002B00F01284AC68674997
:1064F000D6F80C21DFF860A12346032002F018FD36
:1065000096F82D31002B00F03C83023B012B40F22A
:106510003E8396F87431504C002B40F0F98304F51B
:10652000DE73C9F80030032020235949C9F804302C
:1065300002F013FD5748298FDFF84CA103F07AF9D8
:1065400003204F4902F009FD0320534902F005FDE5
:1065500038461FFA88F103F06DF90320484902F02C
:10656000FCFCD9F80430202B40F0D2833846414659
:1065700003F078F9002840F0CB8304F5EE7594F829
:10658000752104F5BB71284604F0AAFB032043499A
:1065900002F0E3FC04F5BB7094F8751103F04AF9BE
:1065A0000320374902F0D9FC94F875213C49C4F81E
:1065B0001C520320C4F8202202F0C4FCD4F820327C
:1065C000402B40F093839AE80003D4F81C72B8F192
:1065D000000F00F08B83002F00F0888347EA08004B
:1065E00010F0030540F0828304F0FCF9414600906E
:1065F0004A462C483B4604F0F9F9002800F076831F
:10660000D0E294F88C3003200BB1274939E22749B6
:1066100099E2274902F0A1FC134B1A6CB260DB6BC4
:1066200073604FF4807384E2224986E200283FF4CD
:10663000E3AE0378013B052B00F27D82DFE813F027
:106640003C009F00B4018A017B026E02642C002092
:1066500092BD0700B3BD0700D02E002000380020F7
:10666000C8370020D0BD0700C8370020EABD0700AA
:106670000ABE07003DBE07005FBE070082BE0700DE
:10668000A0BE0700A9BE0700A0390020E8BE070091
:106690000DBF07002438002023BF07003BBF0700C1
:1066A0004DBF0700ECC4070002C0070024C007006C
:1066B00054C0070084C00700AB49032002F04DFC22
:1066C000A16800293FF498AEC1F30B0353B1A74B67
:1066D000A74A5B6DD2F824220B44934202D00120DA
:1066E000A44987E6B1F5805F05D90320A24902F0ED
:1066F00034FC04240EE39E4E96F8B83123B99F492A
:10670000032002F02AFC21E2984DD6F824326A6D6B
:106710005018984203D99A4802F0B8FF16E20320B5
:10672000984902F01AFCEB6CAB64A3686B6496F8B2
:1067300028326A6D2A65013303F0030386F8283294
:106740000023A6F82A3233682A63013333608E4B64
:10675000A168186801F6FF711044090B8B4A01F01B
:106760000BFD28B133688A49013B33600320EAE11D
:106770008848696C2A6DAB6C02F088FF28E67B4B79
:106780007B4D1A6D4A609A6C8A6095F8B8211F4655
:10679000002A00F0DB818168B1F5807FA9D8D3F8A9
:1067A00050805A6D5B6C08EB0100821A9A4202D944
:1067B000032079491EE6606807F1480201F09CFA5F
:1067C000B864A368B5F82A0295F8281243443B65DB
:1067D0007360BB6CB360A2688318FF2B05F50B7860
:1067E0000CD800EB01204044616804F079FAB5F858
:1067F0002A32A2681344A5F82A325FE0C0F58073FC
:106800001FFA83F900EB01204A466168404404F016
:1068100067FAA368B5F82A22C9EB0303A36063688B
:106820004B446360584B396B1B684A4401EB0309C6
:106830002B6895F8281292B2A5F82A220133033268
:106840002B609210484608EB0121504B01F04CFDA3
:10685000B5F82A2250B94B460320504902F068FB94
:106860003B6BB5F82A2213443B630EE02B684C497E
:10687000013B2B6003204B4602F05AFBFB6CBB64D0
:106880007B6D3B657360FB6CB36095F82802A26872
:10689000DFF8DC90013000F00300002385F82802C7
:1068A000A5F82A3252B108EB0020616804F018FA0A
:1068B000B9F82A32A2681344A9F82A32B5F82A2274
:1068C000DFF8AC90002A3FF483AD796D3B6B786CB8
:1068D000264C511A19448142FFF47AAD2A490F68B7
:1068E00099F828121F44D9F8003003320133C9F84F
:1068F00000309210384608EB0121244B01F0F4FCE3
:10690000B9F82A2250B93B460320244902F010FB73
:10691000236BB9F82A221344236310E0D9F800301E
:106920001F49013BC9F8003003203B4602F000FB41
:10693000E36CA364636D23657360E36CB36095F8E7
:106940002832013303F0030385F828320023A5F829
:106950002A323DE50320134902F0FFFA034B1A6D7A
:1069600072609B6C33E500BFA6C00700C8370020EB
:10697000D02E0020BFC0070008C1070034C10700A7
:1069800074C10700D5C10700243900204161070008
:10699000EFC107000EC2070051C2070070C2070016
:1069A00090C20700C3C20700A34DA449032002F010
:1069B000D4FA2B6D696D6A6C5B1A9A424FF0030032
:1069C00003D09F4902F0B4FAC0E09E4902F0C5FA34
:1069D0002B6D6B650020AB6C6864EB6401F036FDD9
:1069E000002840F08B81984E2A6DD6F824329A42C6
:1069F0007FF4EEAC03209549326802F0A3FA3368C5
:106A0000914F13B102F062FAF9E70320904902F0C6
:106A1000A4FA97F84591B9F1030F21D1DFF87882F4
:106A2000D7F8241207F5DE73C8F80030894B4FF011
:106A3000200A1868C8F804A002F014FF07F24711F2
:106A400000285246D8F800000CBF01240A2404F0A4
:106A500037F930B14846804902F07FFA052400E05A
:106A60000A246B69032023B97C497D4F02F075FA33
:106A70000AE0012B04D17B497B4F02F06EFA03E060
:106A80007A4902F06AFA39E1012C30D103207849C1
:106A900002F063FA96F82D31032B10D8DFE803F0EB
:106AA00002040609012202E0A52203E0AA22BA603C
:106AB00006E0AC22BA60D6F830216A6300E00A240E
:106AC00096F867211AB1604A92F8682152B933B139
:106AD000023B012B06D8D6F80C31EB6002E0D6F869
:106AE0000C31AB60AB6C7B60D6F8243202E0002343
:106AF000BB607B603B60002120225E48FEF722FDE8
:106B0000FF21B2225C48FEF71DFD00235B482B638A
:106B100001F09CFC002818BF0A24FBE00320584920
:106B200002F01BFA444B9A6CB2601B6D73604FF419
:106B3000805333604CE45349032002F00EFA0224E0
:106B4000E8E05149032002F008FAD5E00824E1E02A
:106B500096F82D31032B20D801A252F823F000BF64
:106B6000E36407007F6B0700716B0700716B070020
:106B700096F80831002B00F0CB80EC68B7E40024D5
:106B8000B5E4DAF80C31A342C0F0C280C1E4DAF80F
:106B90000C31A34240F2BC80BBE403203B4902F02D
:106BA000DCF9B5E003203A4902F0D7F994F82D3129
:106BB000C4F82452032BF0D8DFE803F0021C0B27A3
:106BC00096F83C21204B002A00F0A280D3F8402107
:106BD00018E096F834211C4B002A00F09980D3F875
:106BE0003821C3F824222B4BC3F5FC239A4255D9F4
:106BF00004247CE096F82E21134B002A00F08880B4
:106C0000D3F83021C3F8242248E096F834210E4B03
:106C1000002A7DD093F82E21002A79D0D3F83011A4
:106C2000D3F838215018C3F8240209B903245EE0D0
:106C3000002AFBD0D7E700BFC8370020D9C2070021
:106C4000F3C207001FC30700D02E00203AC307007D
:106C500085C3070024390020A0C30700B5C307007F
:106C6000E0370020D4C30700EC370020F3C307004F
:106C700020C407000038002024380020816107006C
:106C800053C4070070C407008FC40700C9BE0700C3
:106C9000ACC4070000500700A03900201F4D20227F
:106CA00005F5DE7005F2471104F01AF8D6F8240253
:106CB0000028BBD002F0D0FB0446002898D1184B26
:106CC00018491A68032002F03DF90320164902F022
:106CD00044F90320154902F040F90320144902F059
:106CE0003CF9204601F0B2FB40B909E0052403203D
:106CF000104902F032F90DE005240BE00A2409E006
:106D000003200D49012402F028F985F8B84101E07B
:106D10000A24ECE7204602B0BDE8F087D02E002020
:106D20002439002067BF07008BBF0700AFBF0700F3
:106D3000C7BF0700E6BF0700C3C4070076DF704780
:106D400075DF704737B5154C20884FF6FF739842B2
:106D5000254620D0A378227C0133DBB29A42A3706F
:106D600007D304F12001FFF7EBFFA0B1E3698BB972
:106D700011E00023A370237D33B13B21FFF7DEFF39
:106D800010B1E36903B19847AB6923B102A80022AF
:106D900000F8042D984703B030BD00BFFC3400203C
:106DA0002DE9D34F14466946082200F00FFE90B338
:106DB0009DF801609DF802809DF805A00027002342
:106DC00032023B434FEA0846002732433B439DF8DB
:106DD00000609DF8038000273B439DF804704FEA54
:106DE0000A2932439DF806A04FEA086632433B4326
:106DF000002643EA090332434FEA0A499DF807A0F7
:106E0000324343EA090332434FEA0A69324343EA11
:106E10000903C4E9002302B0BDE8D08F13B51446BE
:106E200001A9042200F0D2FD70B19DF806309DF852
:106E300005201B0443EA02239DF8042013439DF818
:106E4000072043EA0263236002B010BD73B50D460C
:106E500001A90646144600F06EFD98B1019A511C36
:106E60000FD26B7803F0C003802B0AD02B799942A4
:106E700007D83046214600F0A9FD019B0022E254CC
:106E800000E0002002B070BD73B50D4601A90646B2
:106E9000144600F050FDA8B1019BFF2B11D8591CDE
:106EA0000FD26A7802F0C002802A0AD02A79914271
:106EB00007D82146304601F8013B1A4600F086FD0E
:106EC00000E0002002B070BDF7B50F4669461646D7
:106ED00000F002FD50B3DDE90045002304F001029B
:106EE0006D084FEA340413431CBFE443ED43E8B19B
:106EF0003B79082B02D1C6E9004517E0042B02D1EB
:106F0000346022460AE0022B03D1A3B233801AB2C6
:106F100004E0012B09D1E3B233705AB2D317AB426C
:106F200006BFA2420120002000E0002003B0F0BD17
:106F300037B50D466946144600F0CEFC20B32B79D8
:106F4000082B04D1DDE90001C4E9000113E0042BA2
:106F500003D1DDE9000120600CE0022B03D1009891
:106F6000208080B206E0012B0DD1DDE90001207008
:106F700000F0FF000021DDE90023994206BF9042A6
:106F80000120002000E0002003B030BD37B50D46E1
:106F90006946144600F0A0FC20B32A79082A04D1DF
:106FA000DDE90023C4E900231CE0009B042A184605
:106FB0004FEAE37103D123601A460B460BE0022A25
:106FC00003D19BB223801AB204E0012A09D1DBB2BB
:106FD00023705AB2D3178B4206BF82420120002091
:106FE00000E0002003B030BD61DF704760DF704714
:106FF00010DF704748DF7047A34B1B78062B0AD180
:10700000A24B1B68190706D1A14B1B6803F0F003C4
:10701000302B00F0C1809C4B1B78062B0FD19B4B73
:107020001B681A070BD19A4B1B6803F0F002302A39
:1070300000F0B68003F0E003402B00F0B180924BEB
:107040001B78062B0AD1914B1B681B0706D1904B6E
:107050001B6803F0F003302B00F0A9808A4B1B78EB
:10706000062B0FD1894B1B6818070BD1884B1B6867
:1070700003F0F002302A00F0A08003F0E003402B80
:1070800000F09B80804B1B78062B0AD17F4B1B683E
:10709000190706D17E4B1B6803F0F003302B00F07C
:1070A0009680794B1B78062B0BD1784B1B6813F01D
:1070B0000F0306D1764A126802F0F002302A00F07F
:1070C0008A80714B1B78062B0AD1704B1B681A07FC
:1070D00006D16F4B1B6803F0F003502B00F0858046
:1070E000694B1B78062B0FD1684B1B681B070BD114
:1070F000674B1B6803F0F002302A00F0BE8003F0FB
:10710000E003402B00F0B980624AD2F8883043F4A3
:107110007003C2F88830BFF34F8FBFF36F8F4FF00B
:107120001023D3F80022002A03DBD3F80432002B0B
:107130002EDA594B0122C3F80425D3F80024002A83
:10714000FBD04FF010221521C2F80012D3F8002412
:10715000002AFBD04FF010231522C3F804224E4B17
:10716000D3F80024002AFAD00022C3F80425D3F86B
:107170000024002AFBD0BFF34F8F4649474BCA6813
:1071800002F4E0621343CB60BFF34F8F00BFFDE713
:10719000434B444A1A607047434B444A1A603AE7EB
:1071A000434B444A1B68C3F34233136047E7424AE8
:1071B000D36823F08073D36050E74FF08043002200
:1071C000C3F80C21C3F81021C3F838255AE73B4B0C
:1071D00003221A6065E73A4A05211160012191678F
:1071E0009360384B3F221A606BE74FF08052364B6A
:1071F000D2F80414C3F82015D2F80814C3F82415E3
:10720000D2F80C14C3F82815D2F81014C3F82C15B2
:10721000D2F81414C3F83015D2F81814C3F8341582
:10722000D2F81C14C3F84015D2F82014C3F8441542
:10723000D2F82414C3F84815D2F82814C3F84C1512
:10724000D2F82C14C3F85015D2F83014C3F85415E2
:10725000D2F83414C3F86015D2F83814C3F86415A2
:10726000D2F83C14C3F86815D2F84014C3F86C1572
:10727000D2F84424C3F8702532E7144B144A1B6833
:1072800003F04F0313603FE7E00F00F0E40F00F05E
:10729000E80F00F000ED00E000E001400400FA0516
:1072A000682C00200090D00374C007400DF0ADBAE8
:1072B000440200103C050040F0ED00E0A005004055
:1072C000105600401456004000C000405802001004
:1072D000E40E00402DE9F743324D6B8D2A8C9A4223
:1072E0000FD86A8C9A420CD3AB6923B102A8012251
:1072F00000F8042D9847002385F8303003B0BDE82E
:10730000F08395F83040274B2CB19B69002BF2D0CD
:1073100002A80022ECE79E68DA68DFF898809B7884
:10732000002B18BF1646D8F80430002B37D0042E97
:1073300033D91D4F7B6993B37B7C02A8012B00F8E6
:10734000044D0CBFB1464FF0000902F0D7F90DF122
:10735000030001F0C5FB78B101230370134B4760B4
:10736000D3F8043583609DF80330C660C0F81090F0
:10737000446188F8013000E004249DF8040000F026
:10738000D7FC2CB90A4B4FF48012C3F80021B2E7A6
:107390002046EB69002BADD1ADE70720F9E70820C7
:1073A000F7E700BFFC3400206439002000100140E2
:1073B00000E100E05C3900207BDF70477ADF704736
:1073C0002DE9F041C76886680446F61B406896427E
:1073D00088461546384403D903F082FC3D4409E051
:1073E0003246AD1B03F07CFC606808EB06012A46C0
:1073F00003F076FCE560BDE8F08110B5012203687A
:107400000446984710B1A368013BA36010BD2DE965
:10741000F0478EB00027044602A80097019700F0BD
:10742000EFFBA368002B44D0204608A900F083FAA4
:1074300018B9A368002B3CD033E0089E002E38D04A
:10744000039D4FEAD60806F00706039B1A784245CB
:1074500029D002A800F0E5FB039BAB42F5D1B8456B
:107460005CD3039A537803F00F03082B4BD11778A2
:10747000B84553D3069BD4F808901D68A368002D27
:107480004AD0994548D12B68D3F800C0BCF1000F11
:107490006CD02046294642463346E047002840F05B
:1074A0008580002084E05B7803F00F02082AD0D0AA
:1074B00039E0039B049C5D7802A800F0B2FB002831
:1074C000F7D115F0300F03D1039B1B7803B10134C2
:1074D000BCB162090023934205D05DF8231001314D
:1074E000DFD10133F7E70EAA02EB830304F01F0498
:1074F000C4F120044FF0FF3253F8383CE24093428D
:10750000CFD1012054E002A800F08BFB039BAB42DB
:10751000A7D14FF0FF3701E0994582D1204631468F
:1075200000F07EFA1EE013F0300F0FD1049B3F2BCA
:107530000CD85A090EA901EB820203F01F030121A6
:10754000994052F8383C0B4342F8383CE56825B185
:1075500020464146324602ABA8472046314602AAA1
:1075600000F086FA00287FF45CAF9AE7D3F808A011
:107570009AF80030434519D151466A6808A800F0CE
:107580003FFB6B680C9305F10C030D939AF80130E7
:1075900003F0C003802B04BF2B1D0C9301232B731E
:1075A0002046314608AA00F063FA77E7AD6865E740
:1075B0000EB0BDE8F0877FB503460A466846194617
:1075C00000F01EFB30B1684600F025F8684600F078
:1075D00028FBF7E707B05DF804FBF0B585B00F4670
:1075E0008D6869460646144600F0D8F988B1B86837
:1075F00078B17B7803F03003202B03D12846214655
:10760000FFF7D9FF684629462246FFF700FF019B96
:10761000736005B0F0BD30B54268527802F00F01DA
:10762000082987B003461ED103691C68002C45D089
:1076300000232373236862689D686846294600F02A
:10764000DFFA6368049304F10C0305936B7803F08D
:10765000C003802B08BF231D684608BF0493FFF7B3
:10766000DAFFA468E2E712F0C00109D102F03000AD
:10767000102802D15A6911700CE090060AD506E074
:1076800080291BD1006900219206016016D55B6933
:10769000197013E05A68517801F00F01072904D1DD
:1076A00090681969FFF787FF08E0916818691279F7
:1076B00011B103F015FB01E0FDF744FF07B030BD49
:1076C00043681A44426039B10139934204D013F837
:1076D000010B01F8010FF8E701207047084B5A6EC3
:1076E000013A5A6622B907490A7822F002020A7062
:1076F0001B6E034A0133042B08BF00231366704737
:1077000070350020E935002028DF704729DF7047F9
:1077100030B5044685B00D46684600211022FDF7BD
:1077200011FF237A012B0CD0022B12D10123A28945
:107730008DF80030E389ADF80A20D31AADF808308F
:1077400007E000238DF8003023690293A38AADF887
:107750000C3063680193236868469B682946984704
:1077600005B030BD38B51B4A516E146E134681B357
:10777000182505FB04252A7A012A05D0022A23D1DF
:10778000A889FFF7C1FF14E0182000FB0433E98A41
:107790001869AA8A0833521A5B68B2F5806F4FEAFB
:1077A00081010844B4BF92B24FF480621944FFF7DC
:1077B000ADFF112807D1084A137823F0020343F0E4
:1077C0000403137038BD20B128460921BDE83840B4
:1077D0009EE738BD70350020E935002070B52B4993
:1077E0002B4B0A781C6E12F0020F06461D4640D045
:1077F0001820022E00FB043002D0032E29D042E0D4
:10780000244B00211970037A012B00F1080202D0E9
:10781000022B13D037E0C28A818A8B1AB3F5806FAE
:10782000B4BF9BB24FF48063134418229BB202FB97
:1078300004548B42E38226D1002115E09388013362
:107840009380D38801339BB2D38012899A421AD194
:107850000AE0104A13780133DBB2032B01D813700E
:1078600011E0002313700821FFF752FFFFF736FFE6
:1078700009E0500707D55B6E02F0FB020A7013B1F6
:1078800042F002020A70BDE870406BE7E935002063
:107890007035002030350020082910B502D00020B6
:1078A000FDF72CFF03684068BDE81040184707B596
:1078B000074B1B88072B8DE8030005D96846082174
:1078C000044A01F0ADFA00E0092003B05DF804FBC2
:1078D0004C370020997807002DE9F34781468A4606
:1078E000002600270024D9F808300BB900251EE037
:1078F00048460DF10701FFF780FD05460028F5D049
:107900009DF8078008F07F002246C0B2002102F0F7
:1079100069F818F0800F46EA000647EA010704F10B
:10792000070402D0462CDED1E0E7CAE9006728460A
:1079300002B0BDE8F0872DE9F34183680746884629
:107940000BB9002626E00DF10701FFF756FD0646AC
:107950000028F6D09DF80740220619D504F07F04D0
:107960000725BB68002BECD038460DF10701FFF767
:1079700044FD0028E5D09DF8072002F07F03AB40CE
:107980001C43130605F1070502D5232DE9D1D8E7DD
:10799000C8F80040304602B0BDE8F08173B50D462E
:1079A00001A90446FFF7C7FF064608B900260AE00A
:1079B00094E80F0085E80F0001998A42F6D3A96088
:1079C000A3685B1AA360304602B070BD30B50446B0
:1079D00085B0154689B90268104B9A420DD0102D1A
:1079E0002046694605D91022FFF7F0FF98B1103DF7
:1079F000F5E72A46FFF7EAFF0DE0A368AB4201D2A4
:107A0000002008E0236820462A4698470028F7D03F
:107A1000A3685D1BA56005B030BD00BFC17607003F
:107A200013B50446052920D8DFE801F0070F121F1F
:107A30001F1C9DF90430002B18DA204601A90122F1
:107A4000FFF7C4FF0028F4D110E00021082206E06F
:107A500001A9FFF770FF48B1019A20460021FFF706
:107A6000B5FF03E000210422F9E7002002B010BDB9
:107A70002DE9F04357687B7813F0C00C89B00646B7
:107A80008E46144603D0BCF1400F66D0B0E003F040
:107A90000F02594903F03003102B51F822500AD03D
:107AA00004D8002B40F0A480394608E0202B09D0F0
:107AB000302B40D09CE0636901221A706168226912
:107AC000A84796E0BEF1020FD4F8148023D1042A0F
:107AD00021D804A9FFF762FF002800F08980069BE7
:107AE00093B1616898F800204B7993420CD90F79D3
:107AF000236904A807FB0232A84730B198F8003088
:107B0000013388F80030EAE70120059B7360069B8B
:107B1000002B6ED06CE098F800307979226997F8E4
:107B200004E0994264D9591C88F800103046616815
:107B30000EFB0322C4E7636939781970072A0AD15A
:107B4000636820691A796146FDF7FCFC6368216966
:107B50009868FFF730FD3046B0E717693B6807F1DA
:107B6000040913B9FFF75CFF43E0022911D104A90E
:107B7000FFF714FF00283BD03B68616804A84A4621
:107B80009847002834D0069B002BF5D1059B7360E5
:107B90002FE0012919D007D3052929D101A90422F1
:107BA000FFF714FF042515E000250DF10408013549
:107BB0000B2D1DD0304641460122FFF707FFB8B11B
:107BC00018F9013B002BF2DB05E001A90822FFF7C1
:107BD000FDFE082568B1094B049301AB0593002312
:107BE000069507933B68616804A84A46984700E0F9
:107BF000002009B0BDE8F0832CC50700C17607005E
:107C00000023C2600160416083608B781A44026186
:107C100091F903301A4442610878003018BF0120FE
:107C2000704710B542681178034600293AD002F136
:107C30000C014160147B2CB90168C268FFF7E0FFBA
:107C4000204610BD5178107901F03004302C0AD153
:107C5000547B04F03004302C05D190781969091A4E
:107C6000196100200CE001F0F004202C03D15179BF
:107C700011FB00F004E001F0C001802908BF0420DE
:107C8000517811F0300F02BF996801319960917BF2
:107C9000014418690144196192F90F201144596196
:107CA000012010BD084610BD38B50C4C616E04298A
:107CB000054610D0226E8B18032B88BF043B182278
:107CC0000131616602FB034420460021FDF73AFCC6
:107CD0002C60012038BD002038BD00BF7035002069
:107CE000044A137813F0060F03D143F00203137014
:107CF00038E57047E935002030B512B11368DB4331
:107D000001E04FF0FF33014488420DD010F8012B01
:107D100053400822054D13F0010418BF2C46013AC8
:107D200084EA5303F6D1EFE7D84330BD2083B8EDA2
:107D300010B5084B9A685AB150B9EFF3108272B679
:107D400005491C680C605C684C60986002B962B6BA
:107D5000002010BD5039002000E100E073B502A8FA
:107D6000002300F8063D01F0C9FC294B1B7803F005
:107D7000FF05002B46D1274B1A68002A42D0264A1D
:107D8000D2F80813C9073DD51D601B68019302A8EE
:107D9000224C019BD2F8086500F8055D01F0AEFCAD
:107DA000A16860681F2994BF4B1C2B461F2994BFF4
:107DB0004A1C00228342A26004D11F2B94BF0133CE
:107DC0000023636063689DF803009A423ABFC3F1E1
:107DD0002103D218D21AE3682144934238BF0F4BD3
:107DE0000E7438BFDA60FFF7A3FFA36862681F2B29
:107DF00094BF01330023934201BF074A0123C2F815
:107E0000083353609DF80200FFF792FF02B070BD87
:107E1000E835002000D1004000D00040303500207F
:107E20002DE9F04F0022C9B00C468D5CE37843EA9F
:107E30000563657843EA0543A57843EA052308AD61
:107E40000434AB500432402AEFD12A463023916BE0
:107E5000576A92E860004FEA714484EAF14484EA88
:107E600091242F443D194FEAF61484EAB64484EA7B
:107E7000D6012944013B116402F10402E7D1426DAD
:107E80000192826D0292C26D0392026E0492426E62
:107E90000592826E0692C26E0792924604AA92E8FA
:107EA0000450D0F85080DDF80CB0029E019F44468B
:107EB000274951F8235008A951F8231005EB01096F
:107EC0004FEAB21585EAF22585EA726109EB0105F0
:107ED0002EEA02090CEA020189EA01010D4486EA50
:107EE0000701AA44214006EA07054D404FEAB401C4
:107EF00081EA743181EAB45101332944402B0BEB00
:107F00000A0901EB0A05B346F24606D0E6463E46AC
:107F1000944627464A462C46CAE7019B1C44029BCE
:107F200044651F44039B87651E44049BC6654B4400
:107F30000366059B1A44069B426663448366079B5F
:107F4000454473440565C36649B0BDE8F08F00BF82
:107F500050C50700034B01B919705B6803B118479E
:107F6000704700BF64350020F0B50346186880F301
:107F700008885868FF2464B2EFF30585002D01D10D
:107F8000A64600472546064621273FBAF0B40024FE
:107F9000002500260027F0B4F92040B2004700BFBA
:107FA000F0BD13DF704770B50D4CA36823F00102DC
:107FB0000646A2600D4611B923F0030306E0032034
:107FC000084900F0CAFFA36843F00203A360736886
:107FD00023B130462946BDE87040184770BD00BF48
:107FE0006435002050C6070008B5074B1B6F042BF3
:107FF00008D10320054900F0B0FF01F0FFFA00F0BE
:1080000065FFF2E708BD00BF643500206BC60700BE
:1080100000200146014A00F003BF00BFA98007000D
:108020002DE9F3411F4B5D6F9C6FB5FA85F5B4FAEE
:1080300084F46D0964091F467DBB97F87C3073BBDF
:1080400001A8FEF7D7FF052805D0C0B9154B019848
:108050005B6F984700E00125ECB997F87C30114E32
:10806000EBB902A9D6F88080B6F87E3021F8043D3D
:108070004046FEF7B9FF0528044606D008B1FDF7D3
:108080003DFBB36F4046984700E00124002DD4D05B
:10809000002CD1D003E015B9CFE7002CDDD002B021
:1080A000BDE8F0816435002008B511B10020FDF76E
:1080B00025FB044B93F8843013B1BDE80840AFE7CB
:1080C00008BD00BF6435002008B502460B460120FC
:1080D000024900F02DFFFDF700FB00BF9FC607001F
:1080E00010B50320104900F038FF104B1A6A012A1E
:1080F00002D003200E490CE0DC6974B143F208029F
:10810000996910680022FFF7F7FDA04205D00949E0
:10811000032000F022FF002010BD0320064900F0DC
:108120001CFF012010BD00BFDCC60700C8370020BF
:10813000FFC6070027C7070043C7070008B50C2282
:108140000021FDF7FFF9034B00221A635A631A61FD
:108150005A6108BDC837002018DF70471FB50021DD
:1081600010226846FDF7EEF9022368460093FFF7F8
:10817000F3FF05B05DF804FB2DE9FF4105460E460F
:10818000504F51493346144603202A4600F0D0FE92
:10819000BB68590722D59A0705D503204B4900F043
:1081A000DCFE0A248AE043F00103BB6097F88530C7
:1081B000DB0740F18180464B464A9342984602D302
:1081C000454A934249D3022403204449224600F001
:1081D000B9FEBB6823F00103BB606FE0C5F30B037E
:1081E0002BB103203E4900F0B8FE062466E0374676
:1081F0002A463C4B0221C3F80415D3F80014002989
:10820000FBD03849C1F80825D3F800140029FBD069
:10821000344B0021C3F80415324BD3F80034002B43
:10822000FAD0013F02F58052E3D105EB0636002C6F
:1082300044D0394610226846FDF784F92D0B0123FE
:10824000360B01948DF80030ADF80850ADF80A6097
:1082500068463946A0473C4630E05DB3C5F30B03A2
:1082600003BBD8F800309D421ED3B6B2D8F8042024
:1082700005EB06339A4217D3C6B16846FFF714FDE3
:10828000B0B1009B5C60C3F80080009B02222D0B04
:108290001A729D811E82FFF723FDBB68002443F004
:1082A000010399E706248FE705248DE704248BE773
:1082B000072489E7032487E7012485E7204604B0E3
:1082C000BDE8F0816435002066C7070087C7070056
:1082D0007C2C00207C2C00208C2C0020A9C70700BF
:1082E000C2C7070000E001402DE9F0430E464F49A8
:1082F0001C468B6813F0040F85B0054688461DD0D8
:108300009F0705D503204A4900F027FE0A2489E08B
:1083100043F001038B6091F88530D80778D5454B41
:1083200045498B421F4602D344498B4243D3022422
:1083300003204349224600F005FE73E0002E36D0AC
:10834000002834D040EA06039B0732D12AB9032023
:108350003C4900F002FE042464E03B4B0121C3F8D9
:108360000415D3F800140029FBD0002156F8213061
:1083700045F82130344BD3F800040028FAD00131FD
:108380009142F3D10021C3F80415D3F80014002959
:10839000FBD00026002C45D001948DF8006002959A
:1083A000ADF80C2068463146A04734463AE0032435
:1083B00038E0062436E06EB365B345EA0603990754
:1083C0002AD13B68AB4229D81FFA82F97A6805EBBB
:1083D00089039A4222D3B9F1000F21D06846FFF7F2
:1083E00063FC98B1009B5C601F60009B01221A72C5
:1083F000DE601D61A3F81490FFF772FCD8F8083016
:1084000043F001030024C8F808300BE007248FE78D
:1084100001248DE703248BE7062489E7052487E7F9
:10842000042485E7204605B0BDE8F08364350020CC
:10843000DAC707007C2C00207C2C00208C2C00202C
:10844000FCC7070015C8070000E0014038B52A49FD
:108450002A4A0546032000F075FD294C237843B1D4
:108460000320284900F079FD01F0C8F800F02EFD46
:10847000F3E7012323706560FFF7B6FD00221F4874
:108480000121FFF779FE07280246F5D030B101201F
:108490001D4900F062FD0023237025E01B4C58218C
:1084A0002046FFF729FC1A4944F8040C5722032000
:1084B00000F048FD1748211F4FF4AE7202F010FC87
:1084C0000F4DFFF791FD0D48134B05F18801572221
:1084D000FFF70AFF07280446F2D038B101200F4900
:1084E00000F03BFD00232B70032038BD03200C4916
:1084F00000F033FD204638BD3BC8070000F0070000
:108500006435002063C8070098C80700CC370020F6
:10851000C3C80700EC350020557F0700E0C80700FE
:1085200009C907002DE9F04F4C4D4D496B6B2C6B81
:1085300003F6FF7304F580571C1B24F47F6424F0BA
:108540000F044FEA940C06460CF6FF7C032089B01A
:108550002CF47F6B00F001FD2A6B6B6B2BF00F0B83
:108560001644A846032033B19A4204D13D4900F095
:10857000F4FC00206EE043F20C033B491A8800F043
:10858000E1FC4FEA9B03009303203849039603AABA
:10859000052306EB0B0A07EB0B09CDF810A0059796
:1085A000CDF81890CDF81CB000F0B4FC0123039373
:1085B00003A8009B049605970693FFF7CDFD05469B
:1085C00008B12B481BE003202A49039603AA052380
:1085D000CDF810A00597CDF81890CDF81CB000F09C
:1085E00099FC03230393019303A8009B069304972C
:1085F0000596FFF7B1FD019B054638B11E48394687
:1086000032465B4601F042F8284623E0184603AAAA
:1086100005231A4903960597CDF810A0CDF81890B8
:10862000CDF81CB000F076FCA3454FF003001449D0
:1086300094BFCBEB04042C4600F08FFCD8F8343008
:1086400000201B1BC8F830305646FFF7FFFE4F4690
:10865000002C99D109B0BDE8F08F00BFC8370020C9
:1086600025C9070052C907006CC9070094C9070053
:10867000D4C9070018CA070061CA0700A8CA0700C2
:10868000E7CA07002DE9F043204B0D685C6B43F20D
:1086900008032D1B044485B01D48224689461968ED
:1086A0002B4600F0F3FF03261A4B0096AF086846EE
:1086B000019302940397FFF74FFD80463046B8F1CF
:1086C000000F0AD1144900F048FC4846FFF736FD78
:1086D0004046FFF7BBFE044614E022462B460F49F6
:1086E00000F026FC002110226846FCF72BFF6846AC
:1086F00001940297FFF730FD044618B1304608494F
:1087000000F02BFC204605B0BDE8F083C837002000
:108710000CCB07000050070049CB070069CB0700CE
:10872000ACCB070010B5044613490320224600F0E5
:1087300009FCFFF713FD10B10320104913E00320DB
:108740000F4900F00AFC0F4B0F494FF0FF32C3F8FE
:1087500080200320224600F0F5FB2046FFF721FC95
:1087600028B10A490320BDE8104000F0F6BB2046BE
:10877000BDE81040FFF7F8BBCECB07000CCC0700DC
:1087800037CC070000E100E054CC070081CC0700A3
:1087900008B5074BD3F8E4211AB1904738B1FCF77C
:1087A000ADFF93F8843013B1BDE8084038E408BD4C
:1087B000643500202DE9F04FC1B01C464B9E4D9B07
:1087C000914606EB03080D46002976D1002C72D1A4
:1087D0002546484602F0CAFAC22828BFC22082466F
:1087E00049460DEB0400524602F07AFA0AEB040007
:1087F0000024411901F1310E6844EE4400EB050CF0
:10880000604503D0202300F8013BF9E7354B0EF11A
:108810000109D3F800B00CF133070CF10303444510
:1088200009D3202203F8032C03F8022C03F8012CAF
:1088300009F8012C27E0B4422BBFA21B4A9A4C989E
:10884000125D28BF825C4FEA221A5FFA8AF0BAF101
:10885000090FD4BF3030373003F8030C02F00F009B
:10886000092894BF3030373003F8020C202003F879
:10887000010C0BEB02000134407810F0970F08BF99
:108880002E2209F8012C0333BB4209F10109C6D19C
:108890000D238EF810300A238EF8113020238CF827
:1088A000303068464331FDF7A9FCB0B144454FF084
:1088B00000009ED311E008469BE75CB968464FF480
:1088C0008071094A2B6802F017FA002805DB04467C
:1088D0000A257EE70A2500208BE7204641B0BDE847
:1088E000F08F00BF6C2C0020BCCC0700F0B5C7B0E7
:1088F0001D4616464C9F0B46002900F08B8006A8AB
:108900004FF480714E4A1B6802F0F6F9002801DA34
:10891000002093E00446062F71D8DFE807F0051425
:108920001E2A38485A000024304602F01FFA031964
:10893000FF2B054660D806AB181931462A4602F0CF
:10894000CFF959E0002406AB1819C4F580713246FE
:108950002B6802F0D1F94EE000246B68009306AB5F
:108960001819C4F5807132462B6802F0C5F942E04F
:1089700000246B680093AB68019306AB1819C4F52B
:10898000807132462B6802F0B7F934E000246B683E
:108990000093AB680193EB68029306AB1819C4F51A
:1089A000807132462B6802F0A7F924E000246B683E
:1089B0000093AB680193EB6802932B69039306ABBA
:1089C0001819C4F5807132462B6802F095F912E04F
:1089D00000246B680093AB680193EB6802932B69EA
:1089E00003936B69049306AB1819C4F58071324682
:1089F0002B6802F081F90546002D01DA88E7002591
:108A00002919B1F5807F83D800E0002106A8FDF781
:108A1000F5FB13E0062FF8D801A353F827F000BFA9
:108A200027890700458907005989070071890700D0
:108A30008D890700AD890700D189070047B0F0BDD7
:108A4000BCCC0700F8B5234A234C0021C2F84011E2
:108A5000C2F84411C2F84811C2F84C11C2F8001112
:108A6000C2F804112368002B32D0D2F804256568BF
:108A7000551B25F07F450E461A68954214D3AD1A52
:108A800016441A7CDF6962B100221A74A2682AB106
:108A900058699969904720B1FCF730FE5A69986986
:108AA00090470FB13B46E7E7217B637B0A4A8B4245
:108AB00005D10133DBB2022B08BF00235373637B64
:108AC00004EB8304054B26614FF48012C3F80021A8
:108AD000F8BD00BF001001405037002000E100E069
:108AE00010B50A494A788C78531CDBB29C4208BF07
:108AF00000230C789C421FBF0370486802EB4202BF
:108B000000EBC20008BF002010BD00BF5C39002090
:108B100038B50C4B0C4C4FF40032C3F880200125C3
:108B20004FF48033C4F84833C4F80833656000F06C
:108B30001FFDA560054C0025656000F019FD257638
:108B400038BD00BF00E100E00010014050370020B8
:108B50002DE9F047AD4C237B627BD4F804E09A42C8
:108B600010D00133DBB2022B08BF00232373237B19
:108B700004EB83030122196901EB0E0323F07F4309
:108B8000636001E000210A46A148D4F800C00378E0
:108B9000667E82469AF801709D4D9F4226D003EB77
:108BA00043086F68AD780133DBB29D4208BF0023F4
:108BB00017F83850022D07EBC80903D0032DE9D16F
:108BC00027680CE02568D9F804902F46A846002FA6
:108BD000E0D04F4500F00381B846FF69F7E71FB1C9
:108BE00000253D74FF69FAE72760D3E766762568BC
:108BF00012B10022164615E0B5EB0C0518BF012591
:108C000018E0824F491B2E4400251D60DD693D6040
:108C1000DF683FB106EB0E0525F07F45DA615D6048
:108C20009F601A46236823B11D68A942E9D2691AD8
:108C3000196001252668677E12B11346D2692BE0C0
:108C40009AF800309AF801E071499E4575D003EB1F
:108C5000430891F80290D1F804C00133DBB2994582
:108C60000B7008BF0A701CF838100CEBC80E0129F5
:108C7000DEF80430E4D1197C0029E1D1DEF80800E7
:108C80005860DEF80C009860DEF81000D860DEF85E
:108C90001400986107B15960D3F80480D4F804E057
:108CA000CEEB080121F07F4C5A498C45996801D8D8
:108CB000614408E0C8EB0E0E2EF07F4E71458CBF6C
:108CC000CEEB010100211960D4F800C000214FF063
:108CD000010E83F810E059609960D961DFF82CE14A
:108CE000BCF1000F0BD0D3F80080DCF800108845F1
:108CF00008D8C8EB0101CCF80010C3F81CC0CEF8AE
:108D0000003099E76146D1F800E0F04509D9CEEB93
:108D10000808D1F81CE08C46BEF1000F07D0714660
:108D2000F1E7C8EB0E0EC1F800E08E466146C3F8CD
:108D30000080C3F81CE0CB617EE72368B34201D119
:108D4000002D48D0002B44D0334E6568D6F80485FA
:108D5000D3F800A0237EC5EB080727F07F47033731
:108D6000A3B94FF48032C6F84423C6F804232B4A33
:108D70004FF400314FF00109C2F880111160C6F8BC
:108D8000009000F0F5FB214B83F8189057452CBF5D
:108D9000EB1905EB0A0323F07F45C6F84055D6F8DA
:108DA00004351D4AC8EB030323F07F43C8EB0505D8
:108DB000033325F07F45AB420DD9D2F80435C2F814
:108DC000403500F0D5FB154B4FF40032C3F80021BD
:108DD00001E0FFF79DFE00236376BDE8F087C845FC
:108DE00007D1ED69256025B90B4F0126BE60074FFD
:108DF0007D60D9F81C70D9F80050C8F81C70002F9D
:108E00003FF4C8AE386805443D60C3E650370020E3
:108E10005C390020FEFF7F000010014000E100E00F
:108E20002DE9F347064602A84FF00008254C00F84C
:108E3000018D0D46174600F061FCA17EE27ED3B2A3
:108E4000A28B934238BF0133C9B238BF5FFA83F8AF
:108E500088450AD094F81B80E37EDBB293423ABF88
:108E60000133DBB20023E37601E04FF6FF789DF893
:108E70000700FEF75DFF4FF6FF7398451ED0236A8B
:108E8000DFF840A043F838704FEAC80903EB090245
:108E90008EB185B10C4B1888DAF82430314600FBCE
:108EA00008302A4601F01CFFDAF8203099440020EF
:108EB000A9F8045003E00020908000E0042002B0F4
:108EC000BDE8F087503700204C37002070B50F4CBC
:108ED000A37EE27E9A4218D0A37E226A0C48DBB2BF
:108EE00019B20688606A02EBC10506FB030052F85E
:108EF0003120A9889047A37EA28BDBB29A4286BF1D
:108F00000133DBB20023A376E1E770BD50370020C8
:108F10004C37002073B50093044B0E4615465C6930
:108F2000002132462B46A04702B070BD8439002094
:108F300007B58DE80C006A460223FFF7EBFF03B08C
:108F40005DF804FB07B502AB43F8042D1A46012374
:108F5000FFF7E0FF03B05DF804FB00221346D9E7FA
:108F600038B5394C236813F0040568D143F0040385
:108F7000032036492360FFF7F0FF354B35491A6867
:108F8000354B00BF00BF00BF00BF00BF00BF00BF28
:108F900000BF8A422FD000BF00BF00BF00BF00BF8C
:108FA00000BF00BF00BF00BF00BF00BF00BF00BFC9
:108FB00000BF00BF00BF00BF00BF00BF00BF00BFB9
:108FC00000BF00BF00BF00BF00BF00BF00BF00BFA9
:108FD00000BF00BF00BF00BF00BF00BF00BF00BF99
:108FE00000BF00BF00BF00BF00BF00BF00BF00BF89
:108FF00000BF00BF00BF013BC3D103201749FFF7EB
:10900000ACFF174B18884FF6FF73984204D013211A
:10901000FCF75BFB80B114E023689B070CD5FCF7E1
:1090200056FB70B94FF0A0434FF40032C3F8082547
:10903000236843F00203236000F08AFB02E000256E
:1090400000E00546284638BD28390020D7CC070067
:10905000682C00200024F400C0D4010013CD0700C8
:10906000662C00202DE9F0434FF0A04303254FF478
:109070000032C3F84457C3F84C57C3F808254FF4DF
:109080000022C3F80825AF4B95B018680490FFF78D
:1090900065F8002836D12846AB49AC4AFFF752FFA5
:1090A000AA48FCF7FBFA68BBA94BAA4A1A60AA4B6C
:1090B00050221A80A94BAA4A1A60AA4B1C68C4F312
:1090C00040341CB14FF40052C3F8802004A8A649D4
:1090D000FDF78EFFA34A20B194B14FF40053136003
:1090E0000EE0A24B0121197092F816335B09991E0C
:1090F000052903D8043B012B00F21B8142F2020038
:10910000FCF7FCFA0446002C40F09981984B994AF0
:109110001A609DF810300D94012262F3030362F38C
:10912000071308A80E948DF81030FCF7D2FA38B95E
:109130009DF8213008A801338DF82130FCF7CBFAD7
:109140000446002840F07B818B4801F00FFE8A49DD
:1091500082B204A8FCF7B5FA70B90C23ADF834302C
:109160001823ADF836300DA84FF4C873ADF8384069
:10917000ADF83A30FCF7A7FA0446002840F05F81CA
:109180007E4B4FF6FF7214A91A804FF659630120E7
:1091900021F8483D7A4A8DF80A00FCF790FA002839
:1091A00040F08F80774B04AC03F1100518685968C4
:1091B000224603C20833AB421446F7D1724E04A8CC
:1091C0003146FCF778FA044600287BD121461C2260
:1091D0004FF014090DA8FCF7B5F921464A4608A836
:1091E000FCF7B0F99DF83430ADF80040374643F055
:1091F00004038DF8343017F802398DF80E3002234D
:109200004FF00108ADF80C30230A68F3030368F34C
:10921000420468F30713E4B28DF8013044EA08040D
:1092200003AD36F8020C8DF802400DA908AA3B1DCB
:109230000895CDF824D0ADF82C90FCF73EFA044602
:10924000002840F0FC8021461C220DA8FCF77AF98A
:1092500021464A4608A8FCF775F99DF83430ADF868
:10926000004043F018038DF83430BB788DF80E3091
:10927000230A204668F3030368F3071368F34200E8
:109280008DF80130C4B2172344F01104ADF82C302E
:1092900036F8020C8DF802400DA908AA07F10C035C
:1092A000ADF80C800895CDF824D0FCF706FA0446FA
:1092B000002840F0C480354A136843EA080313606D
:1092C00003E00446002C40F0BA8000211C220DA8C7
:1092D000FCF738F940F6CD430E934FF480430F93DB
:1092E00003238DF840302A4B13930DAD0FCD294E3B
:1092F0000FC695E80700284B86E8070027481C7032
:10930000FEF75AF888B9264B4FF6FF721A80254BA4
:109310001C70254B5B6853B1244B1A7C3AB9244A24
:109320001C745C745A61FCF74BF9044687E008240E
:1093300085E0204B996800293ED01A6842F48002EB
:109340001A603CE0C3CC070029CD0700005007009D
:10935000E435002078370020E2350020483700202F
:109360001180070000E100E0C9800700E835002017
:10937000DC35002011570700E1CD0700662C0020E6
:109380003C390020C7CC07003E3900202839002096
:109390008D5B0700003500202C3500201C35002097
:1093A000FC340020FE3400205C39002064390020A9
:1093B000456D0700503900204FF4800313600021F1
:1093C0001C220DA8FCF7BEF89DF84830002262F37D
:1093D00000038DF848301723ADF844301A4B019341
:1093E00014A9019B41F8303D01250DA81392ADF859
:1093F00034508DF83C508DF83D508DF83E50FDF7BF
:10940000F5FD089A019B9A4204460FD002200F49AD
:10941000FFF798FD4FF080530220D3F80C21089BF2
:109420000B49C3EB822202F1005205E0002C3FF40D
:109430006AAE084928462246FFF784FD63E62046C7
:1094400015B0BDE8F08300BF002C002046CD07001A
:1094500088CD0700BBCD0700F8B5384B38491D68EB
:1094600043F20807A5F540533D6806465D1B0320FF
:10947000FFF773FDB5424FF0030004D23149FFF707
:109480006CFD0420F8BD304C3049FFF766FD032029
:109490002F492269FFF756FD03202E49226AA3694E
:1094A000FFF746FD636A2C49E26A0320FFF740FD9F
:1094B0003B68276AC4F85C31012F2FD12A4603206C
:1094C0002649FFF73FFDA269254902F6FF7222F403
:1094D0007F6222F00F02AD1A334603202A46FFF7BF
:1094E00027FDAE424FF0000304D9276163610320DA
:1094F0001C4918E02361A369D4F85C211A4967610B
:1095000003F6FF7323F47F6323F00F031344032058
:10951000C4F85C31FFF721FD243407E00023134930
:10952000236163610320FFF718FD183420460021F2
:109530000C22FCF707F826600020F8BD141000107C
:10954000EBCD07000CCE0700C83700203DCE07004A
:1095500052CE070068CE07008ECE0700B4CE0700BB
:10956000DDCE070001CF07001FCF070039CF07006E
:10957000204B21491A682F2300BF00BF00BF00BF46
:1095800000BF00BF00BF00BF8A422FD000BF00BF96
:1095900000BF00BF00BF00BF00BF00BF00BF00BFD3
:1095A00000BF00BF00BF00BF00BF00BF00BF00BFC3
:1095B00000BF00BF00BF00BF00BF00BF00BF00BFB3
:1095C00000BF00BF00BF00BF00BF00BF00BF00BFA3
:1095D00000BF00BF00BF00BF00BF00BF00BF00BF93
:1095E00000BF00BF00BF00BF00BF00BF013BC3D131
:1095F000704700BF682C00200024F400204B214954
:109600001A68214B00BF00BF00BF00BF00BF00BFF2
:1096100000BF00BF8A422FD000BF00BF00BF00BF05
:1096200000BF00BF00BF00BF00BF00BF00BF00BF42
:1096300000BF00BF00BF00BF00BF00BF00BF00BF32
:1096400000BF00BF00BF00BF00BF00BF00BF00BF22
:1096500000BF00BF00BF00BF00BF00BF00BF00BF12
:1096600000BF00BF00BF00BF00BF00BF00BF00BF02
:1096700000BF00BF00BF00BF013BC3D1704700BFA8
:10968000682C00200024F400A08601001FB50446C9
:109690000320019102920393214601AA0346FFF79A
:1096A00039FC04B010BD38B505460C4603202346EE
:1096B0000F492A46FFF73CFC0E4B18884FF6FF7304
:1096C000984212D00C4BD3F86021D2070DD56022FE
:1096D00083F8642183F8655183F86641B3F88011FB
:1096E0000322BDE83840FBF74DBF082038BD00BF5E
:1096F0005BCF0700662C0020C837002070B5EFF361
:10970000108572B60F4AD2F890410123ACB9C2F865
:1097100090310D4B0D49D3F880603140C2F888116B
:109720000A49C3F88010D3F88410C2F88C114FF0A6
:10973000FF32C3F88420047000E0037005B962B6FC
:10974000002070BDC837002000E100E0FC06FFBC2F
:1097500037B5174DD5F8983133B3D5F8B0311BB3C1
:1097600002A8002400F8014D85F8AC41FFF7C6FFC0
:109770000DF10600FFF7B4F948B10223037005F5B7
:10978000CE7343609DF8063085F8953100E00424DF
:109790009DF80700FEF7CCFA24B9064B4FF480126F
:1097A000C3F80021204600E0082003B030BD00BF10
:1097B000C837002000E100E02DE9F04105460F46E2
:1097C0003B46032018492A46FFF7B2FB174B1E8879
:1097D0004FF6FF739E4224D0154CD4F86031DB075E
:1097E0001FD5602384F86431032384F8653104F2C3
:1097F00067110123284684F86631FBF751FF0330D7
:1098000085B204F5B27808EB05013846FBF748FF4E
:109810002A18B4F88011304692B2BDE8F041FBF747
:10982000B1BE0820BDE8F08186CF0700662C00207D
:10983000C83700207FB506460C4600230021074AA2
:109840000096019402910391D2F8D451044A032066
:10985000A847A0420346F1D304B070BDC83700202A
:10986000A0BE070070B59CB0002310930022002317
:10987000CDE91223534B1493534B1593534B16932B
:10988000534B1793534B1893534B1993534B1A93B2
:1098900003F17453A3F52303A3F692431B9311B969
:1098A000044645181BE00028FAD11EE0109B14F86E
:1098B000011B1CAA1A440133402B02F8701C1093A0
:1098C0000DD168466946FEF7ABFADDE9122312F5C1
:1098D000007243F10003CDE9122300231093AC4240
:1098E000E4D13F4CD4F8D8510DB90E2068E0109B5C
:1098F0001CAA1A44372B4FF0800103F101036E4676
:1099000002F8701C6B4406D89A1B382A13D0002228
:1099100003F8012BF8E79A1B3F2A03D8002203F82B
:10992000012BF8E730463146FEF77AFA304600213F
:109930003822FBF707FEDDE9122310980821E1FB2E
:10994000002322FA01F1CDE912238DF83F208DF892
:109950003E10110C120E8DF83C201A0A8DF83D10A5
:109960008DF83B308DF83A2030461A0C31461B0EEC
:109970008DF839208DF83830FEF752FA2A46002348
:109980001B99D94011701A99D94011711999D94070
:1099900011721899D94011731799D94011741699F9
:1099A000D94011751599D94011761499D9400833C9
:1099B000202B117702F10102E2D1C4F8DC31002042
:1099C0001CB070BD67E6096A85AE67BB72F36E3C7A
:1099D0003AF54FA57F520E518C68059BABD9831F7A
:1099E000C83700209140031C90409C46203A934089
:1099F000194352426346D340194370470649074A08
:109A0000074B9B1A03DD043BC858D050FBDCFDF725
:109A1000F3FAFBF723FD0000B4D10700002C00206F
:109A2000942C0020FEE7FEE7FEE7FEE7FEE7FEE7F8
:109A3000FEE7FEE7FEE7FEE71AB1013A8B5C8354CE
:109A4000FAE7704710B5013AD2B253B2002B09DBE6
:109A50001BB250F8234051F823309C4204D8F2D274
:109A6000FF2002E0002000E0012040B210BD000015
:109A7000C3F10803DB0070B501330446002003A5E1
:109A80005B1920C940CAAD1920C4184720C940CA73
:109A9000754120C420C940CA754120C420C940CAAC
:109AA000754120C420C940CA754120C420C940CA9C
:109AB000754120C420C940CA754120C420C940CA8C
:109AC000754120C4404170BD00000000000000004E
:109AD000C3F10803DB0070B50133002403A500BF08
:109AE0005B1920C940CAAD1B20C0184720C940CA15
:109AF000B54120C020C940CAB54120C020C940CAD4
:109B0000B54120C020C940CAB54120C020C940CAC3
:109B1000B54120C020C940CAB54120C020C940CAB3
:109B2000B54120C06441B4FA84F0400970BD00BF63
:109B30002DE9F04F08B4F8CA04B451F8042BA3FB84
:109B4000028940F8048B4FF0000AE4FB629A4FF060
:109B5000000BE5FB62AB4FF0000CE6FB62BC4FF084
:109B6000000EE7FB62CE51F8042B4FF00008E3FB38
:109B7000628940F8048BE4FB629AE5FB62ABE6FB8A
:109B800062BCE7FB62CE51F8042B4FF00008E3FB08
:109B9000628940F8048BE4FB629AE5FB62ABE6FB6A
:109BA00062BCE7FB62CE51F8042B4FF00008E3FBE8
:109BB000628940F8048BE4FB629AE5FB62ABE6FB4A
:109BC00062BCE7FB62CE51F8042B4FF00008E3FBC8
:109BD000628940F8048BE4FB629AE5FB62ABE6FB2A
:109BE00062BCE7FB62CE40F8049B40F804AB40F84F
:109BF00004BB40F804CB40F804EB0CBC052B00F090
:109C00001E810C68A0F11400A1F11401A2F114024C
:109C100052F804EB4FF0000550F8046BE4FB6E566D
:109C200052F804EB50F8047BE4FB6E6752F804EB47
:109C300050F8048BE4FB6E7852F804EB50F8049B68
:109C4000E4FB6E8952F804EB50F804ABE4FB6E9A27
:109C5000A0F1140052F8044B51F804EB4FF0000C43
:109C6000E4FB6EC540F804CB51F804EBE4FB6E5600
:109C700040F8045B51F804EBE4FB6E6740F8046BBA
:109C800051F804EBE4FB6E7840F8047B51F804EBE8
:109C9000E4FB6E8940F8048B51F804EBE4FB6E9A08
:109CA000A0E80006062B00F0CA800C68A0F118009E
:109CB000A1F11801A2F1180252F804EB4FF00005CF
:109CC00050F8046BE4FB6E5652F804EB50F8047B3A
:109CD000E4FB6E6752F804EB50F8048BE4FB6E78FB
:109CE00052F804EB50F8049BE4FB6E8952F804EB45
:109CF00050F804ABE4FB6E9A52F804EB50F804BB46
:109D0000E4FB6EABA0F1180052F8044B51F804EBE1
:109D10004FF0000CE4FB6EC540F804CB51F804EBA7
:109D2000E4FB6E5640F8045B51F804EBE4FB6E670D
:109D300040F8046B51F804EBE4FB6E7840F8047BC8
:109D400051F804EBE4FB6E8940F8048B51F804EB06
:109D5000E4FB6E9A40F8049B51F804EBE4FB6EAB15
:109D6000A0E8000C072B6AD008B40C68A0F11C0016
:109D7000A1F11C01A2F11C0252F804EB4FF0000506
:109D800050F8046BE4FB6E5652F804EB50F8047B79
:109D9000E4FB6E6752F804EB50F8048BE4FB6E783A
:109DA00052F804EB50F8049BE4FB6E8952F804EB84
:109DB00050F804ABE4FB6E9A52F804EB50F804BB85
:109DC000E4FB6EAB52F804EB50F804CBE4FB6EBC42
:109DD000A0F11C0052F8044B51F804EB4FF00003C3
:109DE000E4FB6E3540F8043B51F804EBE4FB6E569F
:109DF00040F8045B51F804EBE4FB6E6740F8046B39
:109E000051F804EBE4FB6E7840F8047B51F804EB66
:109E1000E4FB6E8940F8048B51F804EBE4FB6E9A86
:109E200040F8049B51F804EBE4FB6EAB40F804AB44
:109E300051F804EBE4FB6EBCA0E8001808BCBDE8D8
:109E4000F08F2DE9F04FB1E8005E06B4AAFB0912CD
:109E50004FF00003EBFB69234FF00004ECFB693487
:109E60004FF00005EEFB69454FF00006EBFB6A631F
:109E7000ECFB6A344918524176415B41A9FB0978F1
:109E80004FF0000949F1000918EB0108A0E8800132
:109E9000AAFB0A78574158EB0608A0E88001EEFBC0
:109EA0006A454FF0000A4AF1000A4FF00001ECFB4E
:109EB0006B14EEFB6B454FF00002EEFB6C255FEA86
:109EC00059094941644152416D4149F10009EBFB97
:109ED0006B3A1AEB010AA0E80804ACFB0C6A664175
:109EE0005AEB020AA0E84004AEFB0E6A6E415AEB40
:109EF000090AA0E8400406BC052A00F0E680A0F1AB
:109F00001400A1F11401B1E8E043A5FB0E344FF0B9
:109F10000005E6FB6E454FF00006E7FB6E564FF07E
:109F20000007E8FB6E674FF00008E9FB6E784FF022
:109F30000009DB1864416D4176417F4158EB080808
:109F400059F1000950F804CB13EB0C0350F804CB83
:109F500054EB0C0450F804CB55EB0C0550F804CB33
:109F600056EB0C0650F804CB57EB0C0758F10008E1
:109F700059F10009A0F11400EEFB0E89A0E8F803E6
:109F8000062A00F0A280A0F11800A1F11801B1E8A2
:109F9000E047A5FB0E344FF00005E6FB6E454FF0A1
:109FA0000006E7FB6E564FF00007E8FB6E674FF0C8
:109FB0000008E9FB6E784FF00009EAFB6E894FF06C
:109FC000000ADB1864416D4176417F4158EB080877
:109FD00059EB09095AF1000A50F804CB13EB0C03B2
:109FE00050F804CB54EB0C0450F804CB55EB0C05A3
:109FF00050F804CB56EB0C0650F804CB57EB0C078B
:10A0000050F804CB58EB0C0859F100095AF1000A3A
:10A01000A0F11800EEFB0E9AA0E8F807072A54D02A
:10A02000A0F11C00A1F11C01B1E8E04FA5FB0E342A
:10A030004FF00005E6FB6E454FF00006E7FB6E565D
:10A040004FF00007E8FB6E674FF00008E9FB6E7801
:10A050004FF00009EAFB6E894FF0000AEBFB6E9AA5
:10A060004FF0000BDB1864416D4176417F4158EBA6
:10A07000080859EB09095AEB0A0A5BF1000B50F882
:10A0800004CB13EB0C0350F804CB54EB0C0450F846
:10A0900004CB55EB0C0550F804CB56EB0C0650F8EE
:10A0A00004CB57EB0C0750F804CB58EB0C0850F8D6
:10A0B00004CB59EB0C095AF1000A5BF1000BA0F13B
:10A0C0001C00EEFB0EABA0E8F80FBDE8F08F10B55A
:10A0D000002253B28B4205DA1BB2002440F8234021
:10A0E0000132F6E710BD2DE9F0478846B3F90210BA
:10A0F0001F460825CB1D202493FBF5F51F31954203
:10A1000091FBF4F44FFA84F928BF154606464946F8
:10A11000FFF7DDFF2A4630464146FFF78DFCB7F9D1
:10A120000230ED009D4220D9ED1A06EB8401002299
:10A130008E420AD251F8040D20FA05F313430B6046
:10A14000C5F1200300FA03F2F2E72437384631461E
:10A150004A46FFF777FC012807D0304631463A4699
:10A160004B46BDE8F047FFF7B3BCBDE8F08710B53C
:10A1700000231A465CB28C4204DA50F824400133C2
:10A180002243F7E7B2FA82F0400910BD4A110123D9
:10A1900001F01F0150F822008B4018407047013930
:10A1A000C9B24BB2002B0BDA013111F0FF0315D00D
:10A1B00059B201F18043013B50F82320002304E011
:10A1C00050F82330002BEAD0EEE712B152080133E9
:10A1D000FBE7481E03EB401080B200E0184600B2D7
:10A1E000704730B5002463B2934206DA1BB20134E3
:10A1F00051F8235040F82350F5E730BDF0B50C4638
:10A2000089B008220646FFF7ECFFE36A0393236B4D
:10A210000493636B0593A36B0693E36B079300278B
:10A2200069466A4608236846029701970097FFF738
:10A230001FFC314605466A4608233046FFF718FCE6
:10A24000236B0393636B0493A36B0593E36B0693F8
:10A25000054469466A46082368460797FFF708FCE5
:10A26000314605446A4608233046FFF701FC236A5D
:10A270000093636A0193A36A0293A36B0693E36B53
:10A280000793054431466A460823304605970497EC
:10A290000397FFF7EDFB636A0093A36A0193E36AF8
:10A2A000A26B0293636B039304920693E26B236A9F
:10A2B00005920544079331466A4608233046FFF766
:10A2C000D7FBE36A0093236B0193636B0293236ACA
:10A2D0000693A36A0793054431466A46082330462D
:10A2E000059704970397FFF7F3FB236B0093636BCA
:10A2F0000193A36B0293E36B0393636A0693E36A90
:10A3000007932D1A31466A4608233046059704976D
:10A31000FFF7DEFB636B0093A36B0193E36B029388
:10A32000236A0393636A0493A36A0593236B0793D9
:10A330002D1A31466A46082330460697FFF7C8FBB8
:10A34000A36B0093E36B0193636A0393A36A049383
:10A35000E36A0593636B07932D1A314630466A46CC
:10A36000082302970697FFF7B3FB2D1A16D5304640
:10A3700031460D4A0823FFF77BFB4519F7D410E05F
:10A38000094831460822FFF75DFB012809D0304615
:10A390003146054A0823FFF79BFB2D1A002DEFD00D
:10A3A000F5E709B0F0BD00BFC8CF0700013A30B5EE
:10A3B000D2B2002453B2002B09DB1BB2013A51F890
:10A3C000235050F823306B401C43D2B2F2E7B4FA6A
:10A3D00084F0400930BD00EB81010023884206D2A1
:10A3E00051F8042D43EA52030B60D307F6E7704798
:10A3F000F8B5036813F0010506460F46144605D06C
:10A4000001463A462346FFF733FB054630462146D0
:10A41000FFF7E1FF45B104F18042013A56F82230DE
:10A4200043F0004346F82230F8BD70B59DF9104066
:10A430001D4623460646FFF71BFB30B9284631462A
:10A440002246FFF7FFFA012807D0304631462A4658
:10A450002346BDE87040FFF73BBB70BD70B59DF96A
:10A4600010401D4623460646FFF732FB38B1304602
:10A4700031462A462346BDE87040FFF7F9BA70BD61
:10A480002DE9F043A3B09846019112AB414607462F
:10A49000104691460093FFF782FEC0EB881086B20B
:10A4A000454C33B21C40002CBEBF04F1FF3464F0B5
:10A4B0001F040134202593FBF5F5EDB26DB2A4B273
:10A4C00002A8294624B2FFF702FE28B202AB002CF4
:10A4D00003EB800010DD00221346434510D259F8EB
:10A4E000235005FA04F10A4340F82320C4F1200266
:10A4F00025FA02F20133F0E749464246FFF771FEC2
:10A500000FFA88F502AB4FEA4509012403EB8505F4
:10A51000330444D40022114653B24B4522DA0DF1E4
:10A52000880E0EEB840E0DF1880C18B25EF888ECE4
:10A530000CEB83035EF820E053F8803CC3EB0E0382
:10A540005B1A734502D08CBF01210021C4F1010EBA
:10A550000DF1880C0CEB8E0E01325EF888EC4EF893
:10A560002030D9E7621A544202A841465441FFF70D
:10A5700032FF22AA08F1FF3302EB830302EB8802C9
:10A58000284652F8801C53F8802C013E42EAC172E2
:10A59000414643F8802CB6B2FFF71DFFB8E722AB67
:10A5A00003EB8404384654F8881C4246FFF719FE32
:10A5B00023B0BDE8F08300BF1F00008070B590B0ED
:10A5C00006469DF950401D4668462346FFF7B0FAFF
:10A5D000304669462A462346FFF752FF10B070BD49
:10A5E00030B51C4691B0054693F900306846FFF738
:10A5F0009FFAD4F8AC3028466946984711B030BD70
:10A6000030B5144691B0054692F900206846FFF730
:10A6100018FCD4F8AC3028466946984711B030BDD4
:10A620002DE9F04115468AB00446884602A800216B
:10A630002022FAF787FF2E780323204641462A4638
:10A640002F1D76B20293FFF7DBFF2046214602AAB8
:10A650003B460096FFF702FF2046214642462B4626
:10A66000FFF7BEFF00962046214605F184023B46D7
:10A67000FFF7DBFE0AB0BDE8F0812DE9F04793F962
:10A68000006092B004468946104631461546984609
:10A69000FFF76DFD002840F0978002A8494642462A
:10A6A000FFF7AEFF43460AA8214602AAFFF798FF2C
:10A6B00002A801464246FFF7A3FF434648464946E3
:10A6C0002A46FFF78DFF08F104072846294642462F
:10A6D000FFF796FF204621462A463B460096FFF7A5
:10A6E000A4FE284629462A463B460096FFF79DFED3
:10A6F000284621462A463B460096FFF7AFFE2046F5
:10A7000021462A464346FFF76BFF2846214622464C
:10A710003B460096FFF789FE20463B4600962146C1
:10A720002A46FFF782FE2368DB07204613D533460F
:10A7300021463A46FFF79CF9314682462046FFF70C
:10A740004AFE06F18043013B54F8230040EACA70F8
:10A7500044F8230002E03146FFF73DFE284621463B
:10A760004246FFF74DFF284629460AAA3B46009677
:10A77000FFF774FE284629460AAA3B460096FFF7D3
:10A780006DFE0AA801462A463B460096FFF766FE84
:10A79000204621460AAA4346FFF722FF02A80246A6
:10A7A0003B4621460096FFF759FE20462946324691
:10A7B000FFF717FD284649463246FFF712FD484687
:10A7C00002A93246FFF70DFD12B0BDE8F0872DE972
:10A7D000F0438BB08046129D15F9046B0096144629
:10A7E0001F4689462B4602A811464246FFF736FE11
:10A7F00002A80146129AFFF703FF4046414602AA0B
:10A80000129BFFF7EDFE2046214602AA129BFFF79E
:10A81000E7FE2B46384639464A460096FFF71EFEAD
:10A8200002A83946129AFFF7EBFE02A801464246FB
:10A830002B460096FFF712FE02A8014622462B4641
:10A840000096FFF70BFE2046214642462B46009617
:10A85000FFF704FE484649462246129BFFF7C0FE1A
:10A860002046414602AA2B460096FFF7F7FD3846E0
:10A8700039462246129BFFF7B3FE384639464A4610
:10A880002B460096FFF7EAFD204602A93246FFF765
:10A89000A8FC0BB0BDE8F083F0B589B01C460746B4
:10A8A0000E461546684611461A46FFF7A9FE384679
:10A8B00039466A462346FFF793FE684669462A46AC
:10A8C0002346FFF78DFE304631466A462346FFF7A2
:10A8D00087FE09B0F0BDF0B50646A1B00F460846A8
:10A8E000194615461C46FFF742FC20B1304621466A
:10A8F000FFF7EDFB73E0684639462246FFF771FC2F
:10A9000008A829462246FFF76CFC10A82146FFF74D
:10A91000DEFB012318A821461093FFF7D8FB6846F9
:10A9200008A92246FFF78EF8002853D0009BDA07CB
:10A9300004D468462146FFF74EFD26E0089BDB075E
:10A9400004D408A82146FFF746FD3DE000281EDD9F
:10A9500008AA234669466846FFF7BAF868462146C2
:10A96000FFF739FD10A818A92246FFF76BF8002859
:10A9700005DA10A801462A462346FFF779F810A801
:10A98000014618AA2346FFF7A3F810A81DE008A85F
:10A990006A4623460146FFF79BF808A82146FFF7C1
:10A9A0001AFD18A810A92246FFF74CF8002805DA6E
:10A9B00018A801462A462346FFF75AF818A8014668
:10A9C00010AA2346FFF784F818A829462246FFF765
:10A9D0000FFDA4E7304610A92246FFF702FC21B084
:10A9E000F0BD000000487047C4CF07002DE9F04FCC
:10A9F000EFB01E46789C059023780493B4F902309A
:10AA000092461F33202293FBF2F3DBB206939DF9AB
:10AA1000187094F9012007F1FF3926AB002543F89F
:10AA200029506EAB03EB89034EA88B46314643F8A1
:10AA3000805C43F8605CFEF7FFFF94F9012056A8A4
:10AA4000B118FEF7F9FF9DF910604EA83146FFF7E7
:10AA50008EFB8046002840F02F8156A83146FFF734
:10AA600086FB0546002840F0258104F12408404675
:10AA70004EA93A46FEF7E6FF012840F01D81404608
:10AA800056A93A46FEF7DEFF0128089040F01481EF
:10AA90003B461EA856A94246FFF71DFF0DF1380C94
:10AAA00060465946524623464CF82950CDF80CC012
:10AAB000FFF719FBDDF80CC00097604661461EAA3F
:10AAC0004346CDF824C00DF5BC79FFF777FD43462A
:10AAD000009716A84EA91EAAFFF770FD48463246F9
:10AAE0000599FFF77EFBB300039309EB030B039A71
:10AAF000059B584699183246FFF773FB04F144034F
:10AB00001946324636A80793FFF76BFB04EB860124
:10AB100032463EA8443104F1040AFFF762FB49467D
:10AB200000961EA836AA5346FFF798FC4A465B4695
:10AB300036A83EA90094FFF74AFE1EA801463346F8
:10AB40005246FFF7C8FE1EAA484659462346FFF75D
:10AB5000A3FEDDF824C0079B0B936046059B0C9376
:10AB60003946CDF814C00A95CDF83490FFF717FB9D
:10AB70003946054616A8FFF712FBA842B8BF28467B
:10AB800085B2DDF814C06F1E3FB260463946FFF74C
:10AB9000FDFA394610F1000916A818BF4FF0010957
:10ABA000FFF7F4FA002814BF0223002343EA09093F
:10ABB0000DF1280B32465BF8297026A83946FFF7BD
:10ABC00010FB039B3246F9182EA8FFF70AFB31460B
:10ABD0001EA8FFF77CFA023D089B1E93AEB237B267
:10ABE000002F44DB23461EAAD4F8A45026A82EA981
:10ABF000A84739460EA8FFF7C9FA3946051C16A81A
:10AC000018BF0125FFF7C2FA002814BF0223002352
:10AC10001D430AAB53F8257037B39DF9105036A881
:10AC200039462A46FFF7DDFA039B3EA8F9182A4663
:10AC3000FFF7D7FA36A83EA91EAA2346FFF72CFE37
:10AC400046A826A936AA53460095FFF707FC36A862
:10AC50003EA926AA2EAB0094FFF7B9FD1EA8014617
:10AC600046AA2346FFF7BCFC013EB6B2B7E79DF902
:10AC700010501EA8014652462B46FFF72CFE2346D5
:10AC800026A82EA91EAAFFF707FE9DF918404046E8
:10AC900026A92246FEF7D6FE012805D026A80146A1
:10ACA00042462346FEF714FF26A84EA92A46FFF780
:10ACB0007DFB02E0404600E028466FB0BDE8F08F23
:10ACC00010B50A44441E914208D014F8013F087898
:10ACD000834201D0181A10BD0131F4E7002010BDE5
:10ACE00010B5431E0A44914204D011F8014B03F8F9
:10ACF000014FF8E710BD00000CB430B5164B0C1E28
:10AD00009DB01D6804DA8B232B604FF0FF301EE0EE
:10AD10004FF40273ADF8143014BF04F1FF3323462F
:10AD2000049307934FF6FF7302900690ADF8163028
:10AD3000284621AB02A9209A019300F079F8431C20
:10AD4000BCBF8B232B6014B1029B00221A701DB074
:10AD5000BDE8304002B07047602C0020034611F877
:10AD6000012B03F8012B002AF9D17047034613F891
:10AD7000012B002AFBD1181A013870472DE9F04742
:10AD80008E68B34282460C469046994640D38A89E3
:10AD900012F4906F3AD0256809696F1A6569022329
:10ADA00005EB450595FBF3F57B1C4B449D4238BFF5
:10ADB0001D4653050FD5294600F030FB064698B1D5
